{
  "_format": "hh-sol-artifact-1",
  "contractName": "GameScores",
  "sourceName": "contracts/GameScores.sol",
  "abi": [
    {
      "inputs": [
        {
          "internalType": "contract IERC20",
          "name": "_token",
          "type": "address"
        },
        {
          "internalType": "address",
          "name": "_manager",
          "type": "address"
        }
      ],
      "stateMutability": "nonpayable",
      "type": "constructor"
    },
    {
      "anonymous": false,
      "inputs": [
        {
          "indexed": true,
          "internalType": "address",
          "name": "previousOwner",
          "type": "address"
        },
        {
          "indexed": true,
          "internalType": "address",
          "name": "newOwner",
          "type": "address"
        }
      ],
      "name": "OwnershipTransferred",
      "type": "event"
    },
    {
      "anonymous": false,
      "inputs": [
        {
          "indexed": true,
          "internalType": "bytes32",
          "name": "role",
          "type": "bytes32"
        },
        {
          "indexed": true,
          "internalType": "bytes32",
          "name": "previousAdminRole",
          "type": "bytes32"
        },
        {
          "indexed": true,
          "internalType": "bytes32",
          "name": "newAdminRole",
          "type": "bytes32"
        }
      ],
      "name": "RoleAdminChanged",
      "type": "event"
    },
    {
      "anonymous": false,
      "inputs": [
        {
          "indexed": true,
          "internalType": "bytes32",
          "name": "role",
          "type": "bytes32"
        },
        {
          "indexed": true,
          "internalType": "address",
          "name": "account",
          "type": "address"
        },
        {
          "indexed": true,
          "internalType": "address",
          "name": "sender",
          "type": "address"
        }
      ],
      "name": "RoleGranted",
      "type": "event"
    },
    {
      "anonymous": false,
      "inputs": [
        {
          "indexed": true,
          "internalType": "bytes32",
          "name": "role",
          "type": "bytes32"
        },
        {
          "indexed": true,
          "internalType": "address",
          "name": "account",
          "type": "address"
        },
        {
          "indexed": true,
          "internalType": "address",
          "name": "sender",
          "type": "address"
        }
      ],
      "name": "RoleRevoked",
      "type": "event"
    },
    {
      "inputs": [],
      "name": "DEFAULT_ADMIN_ROLE",
      "outputs": [
        {
          "internalType": "bytes32",
          "name": "",
          "type": "bytes32"
        }
      ],
      "stateMutability": "view",
      "type": "function"
    },
    {
      "inputs": [],
      "name": "MANAGE_ROLE",
      "outputs": [
        {
          "internalType": "bytes32",
          "name": "",
          "type": "bytes32"
        }
      ],
      "stateMutability": "view",
      "type": "function"
    },
    {
      "inputs": [
        {
          "internalType": "bytes32",
          "name": "role",
          "type": "bytes32"
        }
      ],
      "name": "getRoleAdmin",
      "outputs": [
        {
          "internalType": "bytes32",
          "name": "",
          "type": "bytes32"
        }
      ],
      "stateMutability": "view",
      "type": "function"
    },
    {
      "inputs": [
        {
          "internalType": "bytes32",
          "name": "role",
          "type": "bytes32"
        },
        {
          "internalType": "address",
          "name": "account",
          "type": "address"
        }
      ],
      "name": "grantRole",
      "outputs": [],
      "stateMutability": "nonpayable",
      "type": "function"
    },
    {
      "inputs": [
        {
          "internalType": "bytes32",
          "name": "role",
          "type": "bytes32"
        },
        {
          "internalType": "address",
          "name": "account",
          "type": "address"
        }
      ],
      "name": "hasRole",
      "outputs": [
        {
          "internalType": "bool",
          "name": "",
          "type": "bool"
        }
      ],
      "stateMutability": "view",
      "type": "function"
    },
    {
      "inputs": [],
      "name": "owner",
      "outputs": [
        {
          "internalType": "address",
          "name": "",
          "type": "address"
        }
      ],
      "stateMutability": "view",
      "type": "function"
    },
    {
      "inputs": [],
      "name": "playToEarn",
      "outputs": [],
      "stateMutability": "nonpayable",
      "type": "function"
    },
    {
      "inputs": [
        {
          "internalType": "uint256",
          "name": "",
          "type": "uint256"
        }
      ],
      "name": "players",
      "outputs": [
        {
          "internalType": "address",
          "name": "",
          "type": "address"
        }
      ],
      "stateMutability": "view",
      "type": "function"
    },
    {
      "inputs": [],
      "name": "renounceOwnership",
      "outputs": [],
      "stateMutability": "nonpayable",
      "type": "function"
    },
    {
      "inputs": [
        {
          "internalType": "bytes32",
          "name": "role",
          "type": "bytes32"
        },
        {
          "internalType": "address",
          "name": "account",
          "type": "address"
        }
      ],
      "name": "renounceRole",
      "outputs": [],
      "stateMutability": "nonpayable",
      "type": "function"
    },
    {
      "inputs": [],
      "name": "retrive",
      "outputs": [],
      "stateMutability": "nonpayable",
      "type": "function"
    },
    {
      "inputs": [
        {
          "internalType": "bytes32",
          "name": "role",
          "type": "bytes32"
        },
        {
          "internalType": "address",
          "name": "account",
          "type": "address"
        }
      ],
      "name": "revokeRole",
      "outputs": [],
      "stateMutability": "nonpayable",
      "type": "function"
    },
    {
      "inputs": [
        {
          "internalType": "address",
          "name": "",
          "type": "address"
        }
      ],
      "name": "scores",
      "outputs": [
        {
          "internalType": "uint256",
          "name": "",
          "type": "uint256"
        }
      ],
      "stateMutability": "view",
      "type": "function"
    },
    {
      "inputs": [
        {
          "internalType": "bytes4",
          "name": "interfaceId",
          "type": "bytes4"
        }
      ],
      "name": "supportsInterface",
      "outputs": [
        {
          "internalType": "bool",
          "name": "",
          "type": "bool"
        }
      ],
      "stateMutability": "view",
      "type": "function"
    },
    {
      "inputs": [],
      "name": "topScores",
      "outputs": [
        {
          "internalType": "address[3]",
          "name": "",
          "type": "address[3]"
        },
        {
          "internalType": "uint256[3]",
          "name": "",
          "type": "uint256[3]"
        }
      ],
      "stateMutability": "view",
      "type": "function"
    },
    {
      "inputs": [
        {
          "internalType": "address",
          "name": "newOwner",
          "type": "address"
        }
      ],
      "name": "transferOwnership",
      "outputs": [],
      "stateMutability": "nonpayable",
      "type": "function"
    },
    {
      "inputs": [
        {
          "internalType": "uint256",
          "name": "newScore",
          "type": "uint256"
        }
      ],
      "name": "updateScore",
      "outputs": [],
      "stateMutability": "payable",
      "type": "function"
    }
  ],
  "bytecode": "0x60806040523480156200001157600080fd5b50604051620028cd380380620028cd8339818101604052810190620000379190620003bf565b620000576200004b620000d260201b60201c565b620000da60201b60201c565b81600660006101000a81548173ffffffffffffffffffffffffffffffffffffffff021916908373ffffffffffffffffffffffffffffffffffffffff160217905550620000ca7fa076a07f65bcd51bcb15a0f01a65bc18f2d922acb81bcfd8af4caf5adb557091826200019e60201b60201c565b505062000406565b600033905090565b60008060009054906101000a900473ffffffffffffffffffffffffffffffffffffffff169050816000806101000a81548173ffffffffffffffffffffffffffffffffffffffff021916908373ffffffffffffffffffffffffffffffffffffffff1602179055508173ffffffffffffffffffffffffffffffffffffffff168173ffffffffffffffffffffffffffffffffffffffff167f8be0079c531659141344cd1fd0a4f28419497f9722a3daafe3b4186f6b6457e060405160405180910390a35050565b620001b08282620001b460201b60201c565b5050565b620001c68282620002a560201b60201c565b620002a157600180600084815260200190815260200160002060000160008373ffffffffffffffffffffffffffffffffffffffff1673ffffffffffffffffffffffffffffffffffffffff16815260200190815260200160002060006101000a81548160ff02191690831515021790555062000246620000d260201b60201c565b73ffffffffffffffffffffffffffffffffffffffff168173ffffffffffffffffffffffffffffffffffffffff16837f2f8788117e7eff1d82e926ec794901d17c78024a50270940304540a733656f0d60405160405180910390a45b5050565b60006001600084815260200190815260200160002060000160008373ffffffffffffffffffffffffffffffffffffffff1673ffffffffffffffffffffffffffffffffffffffff16815260200190815260200160002060009054906101000a900460ff16905092915050565b600080fd5b600073ffffffffffffffffffffffffffffffffffffffff82169050919050565b6000620003428262000315565b9050919050565b6000620003568262000335565b9050919050565b620003688162000349565b81146200037457600080fd5b50565b60008151905062000388816200035d565b92915050565b620003998162000335565b8114620003a557600080fd5b50565b600081519050620003b9816200038e565b92915050565b60008060408385031215620003d957620003d862000310565b5b6000620003e98582860162000377565b9250506020620003fc85828601620003a8565b9150509250929050565b6124b780620004166000396000f3fe6080604052600436106100fe5760003560e01c806376dd110f11610095578063a6b7fc5b11610064578063a6b7fc5b14610324578063d547741f1461033b578063f2fde38b14610364578063f71d96cb1461038d578063f853e34d146103ca576100fe565b806376dd110f146102545780638da5cb5b1461029157806391d14854146102bc578063a217fddf146102f9576100fe565b80632f2ff15d116100d15780632f2ff15d146101c057806336568abe146101e957806360a4b76a14610212578063715018a61461023d576100fe565b806301ffc9a7146101035780630204bb5f14610140578063243cfb0c14610157578063248a9ca314610183575b600080fd5b34801561010f57600080fd5b5061012a600480360381019061012591906118d7565b6103e6565b604051610137919061191f565b60405180910390f35b34801561014c57600080fd5b50610155610460565b005b34801561016357600080fd5b5061016c6108c3565b60405161017a929190611acc565b60405180910390f35b34801561018f57600080fd5b506101aa60048036038101906101a59190611b2b565b610acc565b6040516101b79190611b67565b60405180910390f35b3480156101cc57600080fd5b506101e760048036038101906101e29190611bae565b610aec565b005b3480156101f557600080fd5b50610210600480360381019061020b9190611bae565b610b0d565b005b34801561021e57600080fd5b50610227610b90565b6040516102349190611b67565b60405180910390f35b34801561024957600080fd5b50610252610bb4565b005b34801561026057600080fd5b5061027b60048036038101906102769190611bee565b610bc8565b6040516102889190611c2a565b60405180910390f35b34801561029d57600080fd5b506102a6610be0565b6040516102b39190611c54565b60405180910390f35b3480156102c857600080fd5b506102e360048036038101906102de9190611bae565b610c09565b6040516102f0919061191f565b60405180910390f35b34801561030557600080fd5b5061030e610c74565b60405161031b9190611b67565b60405180910390f35b34801561033057600080fd5b50610339610c7b565b005b34801561034757600080fd5b50610362600480360381019061035d9190611bae565b610cd9565b005b34801561037057600080fd5b5061038b60048036038101906103869190611bee565b610cfa565b005b34801561039957600080fd5b506103b460048036038101906103af9190611c9b565b610d7e565b6040516103c19190611c54565b60405180910390f35b6103e460048036038101906103df9190611c9b565b610db4565b005b60007f7965db0b000000000000000000000000000000000000000000000000000000007bffffffffffffffffffffffffffffffffffffffffffffffffffffffff1916827bffffffffffffffffffffffffffffffffffffffffffffffffffffffff191614806104595750610458826111d3565b5b9050919050565b61048a7fa076a07f65bcd51bcb15a0f01a65bc18f2d922acb81bcfd8af4caf5adb55709133610c09565b6104c9576040517f08c379a00000000000000000000000000000000000000000000000000000000081526004016104c090611d25565b60405180910390fd5b600073ffffffffffffffffffffffffffffffffffffffff1660036000600381106104f6576104f5611d45565b5b0160009054906101000a900473ffffffffffffffffffffffffffffffffffffffff1673ffffffffffffffffffffffffffffffffffffffff161461061c57600660009054906101000a900473ffffffffffffffffffffffffffffffffffffffff1673ffffffffffffffffffffffffffffffffffffffff1663a9059cbb600360006003811061058657610585611d45565b5b0160009054906101000a900473ffffffffffffffffffffffffffffffffffffffff166101f46040518363ffffffff1660e01b81526004016105c8929190611db9565b602060405180830381600087803b1580156105e257600080fd5b505af11580156105f6573d6000803e3d6000fd5b505050506040513d601f19601f8201168201806040525081019061061a9190611e0e565b505b600073ffffffffffffffffffffffffffffffffffffffff16600360016003811061064957610648611d45565b5b0160009054906101000a900473ffffffffffffffffffffffffffffffffffffffff1673ffffffffffffffffffffffffffffffffffffffff161461076f57600660009054906101000a900473ffffffffffffffffffffffffffffffffffffffff1673ffffffffffffffffffffffffffffffffffffffff1663a9059cbb60036001600381106106d9576106d8611d45565b5b0160009054906101000a900473ffffffffffffffffffffffffffffffffffffffff1661012c6040518363ffffffff1660e01b815260040161071b929190611e76565b602060405180830381600087803b15801561073557600080fd5b505af1158015610749573d6000803e3d6000fd5b505050506040513d601f19601f8201168201806040525081019061076d9190611e0e565b505b600073ffffffffffffffffffffffffffffffffffffffff16600360026003811061079c5761079b611d45565b5b0160009054906101000a900473ffffffffffffffffffffffffffffffffffffffff1673ffffffffffffffffffffffffffffffffffffffff16146108c157600660009054906101000a900473ffffffffffffffffffffffffffffffffffffffff1673ffffffffffffffffffffffffffffffffffffffff1663a9059cbb600360026003811061082c5761082b611d45565b5b0160009054906101000a900473ffffffffffffffffffffffffffffffffffffffff1660646040518363ffffffff1660e01b815260040161086d929190611eda565b602060405180830381600087803b15801561088757600080fd5b505af115801561089b573d6000803e3d6000fd5b505050506040513d601f19601f820116820180604052508101906108bf9190611e0e565b505b565b6108cb611836565b6108d3611858565b600360405180606001604052806002600060036000600381106108f9576108f8611d45565b5b0160009054906101000a900473ffffffffffffffffffffffffffffffffffffffff1673ffffffffffffffffffffffffffffffffffffffff1673ffffffffffffffffffffffffffffffffffffffff16815260200190815260200160002054815260200160026000600360016003811061097457610973611d45565b5b0160009054906101000a900473ffffffffffffffffffffffffffffffffffffffff1673ffffffffffffffffffffffffffffffffffffffff1673ffffffffffffffffffffffffffffffffffffffff1681526020019081526020016000205481526020016002600060036002600381106109ef576109ee611d45565b5b0160009054906101000a900473ffffffffffffffffffffffffffffffffffffffff1673ffffffffffffffffffffffffffffffffffffffff1673ffffffffffffffffffffffffffffffffffffffff1681526020019081526020016000205481525081600380602002604051908101604052809291908260038015610abd576020028201915b8160009054906101000a900473ffffffffffffffffffffffffffffffffffffffff1673ffffffffffffffffffffffffffffffffffffffff1681526020019060010190808311610a73575b50505050509150915091509091565b600060016000838152602001908152602001600020600101549050919050565b610af582610acc565b610afe8161123d565b610b088383611251565b505050565b610b15611331565b73ffffffffffffffffffffffffffffffffffffffff168173ffffffffffffffffffffffffffffffffffffffff1614610b82576040517f08c379a0000000000000000000000000000000000000000000000000000000008152600401610b7990611f75565b60405180910390fd5b610b8c8282611339565b5050565b7fa076a07f65bcd51bcb15a0f01a65bc18f2d922acb81bcfd8af4caf5adb55709181565b610bbc61141b565b610bc66000611499565b565b60026020528060005260406000206000915090505481565b60008060009054906101000a900473ffffffffffffffffffffffffffffffffffffffff16905090565b60006001600084815260200190815260200160002060000160008373ffffffffffffffffffffffffffffffffffffffff1673ffffffffffffffffffffffffffffffffffffffff16815260200190815260200160002060009054906101000a900460ff16905092915050565b6000801b81565b610c8361141b565b6000610c8d610be0565b90508073ffffffffffffffffffffffffffffffffffffffff166108fc479081150290604051600060405180830381858888f19350505050158015610cd5573d6000803e3d6000fd5b5050565b610ce282610acc565b610ceb8161123d565b610cf58383611339565b505050565b610d0261141b565b600073ffffffffffffffffffffffffffffffffffffffff168173ffffffffffffffffffffffffffffffffffffffff161415610d72576040517f08c379a0000000000000000000000000000000000000000000000000000000008152600401610d6990612007565b60405180910390fd5b610d7b81611499565b50565b60038160038110610d8e57600080fd5b016000915054906101000a900473ffffffffffffffffffffffffffffffffffffffff1681565b662386f26fc10000341015610dfe576040517f08c379a0000000000000000000000000000000000000000000000000000000008152600401610df590612099565b60405180910390fd5b80600260003373ffffffffffffffffffffffffffffffffffffffff1673ffffffffffffffffffffffffffffffffffffffff1681526020019081526020016000208190555060006003600060038110610e5957610e58611d45565b5b0160009054906101000a900473ffffffffffffffffffffffffffffffffffffffff16905060006003600160038110610e9457610e93611d45565b5b0160009054906101000a900473ffffffffffffffffffffffffffffffffffffffff169050600260006003600260038110610ed157610ed0611d45565b5b0160009054906101000a900473ffffffffffffffffffffffffffffffffffffffff1673ffffffffffffffffffffffffffffffffffffffff1673ffffffffffffffffffffffffffffffffffffffff168152602001908152602001600020548311156111ce57600260008373ffffffffffffffffffffffffffffffffffffffff1673ffffffffffffffffffffffffffffffffffffffff1681526020019081526020016000205483111561108057816003600160038110610f9257610f91611d45565b5b0160006101000a81548173ffffffffffffffffffffffffffffffffffffffff021916908373ffffffffffffffffffffffffffffffffffffffff160217905550806003600260038110610fe757610fe6611d45565b5b0160006101000a81548173ffffffffffffffffffffffffffffffffffffffff021916908373ffffffffffffffffffffffffffffffffffffffff16021790555033600360006003811061103c5761103b611d45565b5b0160006101000a81548173ffffffffffffffffffffffffffffffffffffffff021916908373ffffffffffffffffffffffffffffffffffffffff1602179055506111cd565b600260008273ffffffffffffffffffffffffffffffffffffffff1673ffffffffffffffffffffffffffffffffffffffff16815260200190815260200160002054831115611176578060036002600381106110dd576110dc611d45565b5b0160006101000a81548173ffffffffffffffffffffffffffffffffffffffff021916908373ffffffffffffffffffffffffffffffffffffffff16021790555033600360016003811061113257611131611d45565b5b0160006101000a81548173ffffffffffffffffffffffffffffffffffffffff021916908373ffffffffffffffffffffffffffffffffffffffff1602179055506111cc565b33600360026003811061118c5761118b611d45565b5b0160006101000a81548173ffffffffffffffffffffffffffffffffffffffff021916908373ffffffffffffffffffffffffffffffffffffffff1602179055505b5b5b505050565b60007f01ffc9a7000000000000000000000000000000000000000000000000000000007bffffffffffffffffffffffffffffffffffffffffffffffffffffffff1916827bffffffffffffffffffffffffffffffffffffffffffffffffffffffff1916149050919050565b61124e81611249611331565b61155d565b50565b61125b8282610c09565b61132d57600180600084815260200190815260200160002060000160008373ffffffffffffffffffffffffffffffffffffffff1673ffffffffffffffffffffffffffffffffffffffff16815260200190815260200160002060006101000a81548160ff0219169083151502179055506112d2611331565b73ffffffffffffffffffffffffffffffffffffffff168173ffffffffffffffffffffffffffffffffffffffff16837f2f8788117e7eff1d82e926ec794901d17c78024a50270940304540a733656f0d60405160405180910390a45b5050565b600033905090565b6113438282610c09565b156114175760006001600084815260200190815260200160002060000160008373ffffffffffffffffffffffffffffffffffffffff1673ffffffffffffffffffffffffffffffffffffffff16815260200190815260200160002060006101000a81548160ff0219169083151502179055506113bc611331565b73ffffffffffffffffffffffffffffffffffffffff168173ffffffffffffffffffffffffffffffffffffffff16837ff6391f5c32d9c69d2a47ea670b442974b53935d1edc7fd64eb21e047a839171b60405160405180910390a45b5050565b611423611331565b73ffffffffffffffffffffffffffffffffffffffff16611441610be0565b73ffffffffffffffffffffffffffffffffffffffff1614611497576040517f08c379a000000000000000000000000000000000000000000000000000000000815260040161148e90612105565b60405180910390fd5b565b60008060009054906101000a900473ffffffffffffffffffffffffffffffffffffffff169050816000806101000a81548173ffffffffffffffffffffffffffffffffffffffff021916908373ffffffffffffffffffffffffffffffffffffffff1602179055508173ffffffffffffffffffffffffffffffffffffffff168173ffffffffffffffffffffffffffffffffffffffff167f8be0079c531659141344cd1fd0a4f28419497f9722a3daafe3b4186f6b6457e060405160405180910390a35050565b6115678282610c09565b6115f65761158c8173ffffffffffffffffffffffffffffffffffffffff1660146115fa565b61159a8360001c60206115fa565b6040516020016115ab929190612237565b6040516020818303038152906040526040517f08c379a00000000000000000000000000000000000000000000000000000000081526004016115ed91906122bb565b60405180910390fd5b5050565b60606000600283600261160d919061230c565b6116179190612366565b67ffffffffffffffff8111156116305761162f6123bc565b5b6040519080825280601f01601f1916602001820160405280156116625781602001600182028036833780820191505090505b5090507f30000000000000000000000000000000000000000000000000000000000000008160008151811061169a57611699611d45565b5b60200101907effffffffffffffffffffffffffffffffffffffffffffffffffffffffffffff1916908160001a9053507f7800000000000000000000000000000000000000000000000000000000000000816001815181106116fe576116fd611d45565b5b60200101907effffffffffffffffffffffffffffffffffffffffffffffffffffffffffffff1916908160001a9053506000600184600261173e919061230c565b6117489190612366565b90505b60018111156117e8577f3031323334353637383961626364656600000000000000000000000000000000600f86166010811061178a57611789611d45565b5b1a60f81b8282815181106117a1576117a0611d45565b5b60200101907effffffffffffffffffffffffffffffffffffffffffffffffffffffffffffff1916908160001a905350600485901c9450806117e1906123eb565b905061174b565b506000841461182c576040517f08c379a000000000000000000000000000000000000000000000000000000000815260040161182390612461565b60405180910390fd5b8091505092915050565b6040518060600160405280600390602082028036833780820191505090505090565b6040518060600160405280600390602082028036833780820191505090505090565b600080fd5b60007fffffffff0000000000000000000000000000000000000000000000000000000082169050919050565b6118b48161187f565b81146118bf57600080fd5b50565b6000813590506118d1816118ab565b92915050565b6000602082840312156118ed576118ec61187a565b5b60006118fb848285016118c2565b91505092915050565b60008115159050919050565b61191981611904565b82525050565b60006020820190506119346000830184611910565b92915050565b600060039050919050565b600081905092915050565b6000819050919050565b600073ffffffffffffffffffffffffffffffffffffffff82169050919050565b60006119858261195a565b9050919050565b6119958161197a565b82525050565b60006119a7838361198c565b60208301905092915050565b6000602082019050919050565b6119c98161193a565b6119d38184611945565b92506119de82611950565b8060005b83811015611a0f5781516119f6878261199b565b9650611a01836119b3565b9250506001810190506119e2565b505050505050565b600060039050919050565b600081905092915050565b6000819050919050565b6000819050919050565b611a4a81611a37565b82525050565b6000611a5c8383611a41565b60208301905092915050565b6000602082019050919050565b611a7e81611a17565b611a888184611a22565b9250611a9382611a2d565b8060005b83811015611ac4578151611aab8782611a50565b9650611ab683611a68565b925050600181019050611a97565b505050505050565b600060c082019050611ae160008301856119c0565b611aee6060830184611a75565b9392505050565b6000819050919050565b611b0881611af5565b8114611b1357600080fd5b50565b600081359050611b2581611aff565b92915050565b600060208284031215611b4157611b4061187a565b5b6000611b4f84828501611b16565b91505092915050565b611b6181611af5565b82525050565b6000602082019050611b7c6000830184611b58565b92915050565b611b8b8161197a565b8114611b9657600080fd5b50565b600081359050611ba881611b82565b92915050565b60008060408385031215611bc557611bc461187a565b5b6000611bd385828601611b16565b9250506020611be485828601611b99565b9150509250929050565b600060208284031215611c0457611c0361187a565b5b6000611c1284828501611b99565b91505092915050565b611c2481611a37565b82525050565b6000602082019050611c3f6000830184611c1b565b92915050565b611c4e8161197a565b82525050565b6000602082019050611c696000830184611c45565b92915050565b611c7881611a37565b8114611c8357600080fd5b50565b600081359050611c9581611c6f565b92915050565b600060208284031215611cb157611cb061187a565b5b6000611cbf84828501611c86565b91505092915050565b600082825260208201905092915050565b7f43616c6c6572206973206e6f742061206d616e61676572000000000000000000600082015250565b6000611d0f601783611cc8565b9150611d1a82611cd9565b602082019050919050565b60006020820190508181036000830152611d3e81611d02565b9050919050565b7f4e487b7100000000000000000000000000000000000000000000000000000000600052603260045260246000fd5b6000819050919050565b6000819050919050565b6000611da3611d9e611d9984611d74565b611d7e565b611a37565b9050919050565b611db381611d88565b82525050565b6000604082019050611dce6000830185611c45565b611ddb6020830184611daa565b9392505050565b611deb81611904565b8114611df657600080fd5b50565b600081519050611e0881611de2565b92915050565b600060208284031215611e2457611e2361187a565b5b6000611e3284828501611df9565b91505092915050565b6000819050919050565b6000611e60611e5b611e5684611e3b565b611d7e565b611a37565b9050919050565b611e7081611e45565b82525050565b6000604082019050611e8b6000830185611c45565b611e986020830184611e67565b9392505050565b6000819050919050565b6000611ec4611ebf611eba84611e9f565b611d7e565b611a37565b9050919050565b611ed481611ea9565b82525050565b6000604082019050611eef6000830185611c45565b611efc6020830184611ecb565b9392505050565b7f416363657373436f6e74726f6c3a2063616e206f6e6c792072656e6f756e636560008201527f20726f6c657320666f722073656c660000000000000000000000000000000000602082015250565b6000611f5f602f83611cc8565b9150611f6a82611f03565b604082019050919050565b60006020820190508181036000830152611f8e81611f52565b9050919050565b7f4f776e61626c653a206e6577206f776e657220697320746865207a65726f206160008201527f6464726573730000000000000000000000000000000000000000000000000000602082015250565b6000611ff1602683611cc8565b9150611ffc82611f95565b604082019050919050565b6000602082019050818103600083015261202081611fe4565b9050919050565b7f56616c75652073686f756c642062652067726561746572206f7220657175616c60008201527f20746f20302e3031000000000000000000000000000000000000000000000000602082015250565b6000612083602883611cc8565b915061208e82612027565b604082019050919050565b600060208201905081810360008301526120b281612076565b9050919050565b7f4f776e61626c653a2063616c6c6572206973206e6f7420746865206f776e6572600082015250565b60006120ef602083611cc8565b91506120fa826120b9565b602082019050919050565b6000602082019050818103600083015261211e816120e2565b9050919050565b600081905092915050565b7f416363657373436f6e74726f6c3a206163636f756e7420000000000000000000600082015250565b6000612166601783612125565b915061217182612130565b601782019050919050565b600081519050919050565b60005b838110156121a557808201518184015260208101905061218a565b838111156121b4576000848401525b50505050565b60006121c58261217c565b6121cf8185612125565b93506121df818560208601612187565b80840191505092915050565b7f206973206d697373696e6720726f6c6520000000000000000000000000000000600082015250565b6000612221601183612125565b915061222c826121eb565b601182019050919050565b600061224282612159565b915061224e82856121ba565b915061225982612214565b915061226582846121ba565b91508190509392505050565b6000601f19601f8301169050919050565b600061228d8261217c565b6122978185611cc8565b93506122a7818560208601612187565b6122b081612271565b840191505092915050565b600060208201905081810360008301526122d58184612282565b905092915050565b7f4e487b7100000000000000000000000000000000000000000000000000000000600052601160045260246000fd5b600061231782611a37565b915061232283611a37565b9250817fffffffffffffffffffffffffffffffffffffffffffffffffffffffffffffffff048311821515161561235b5761235a6122dd565b5b828202905092915050565b600061237182611a37565b915061237c83611a37565b9250827fffffffffffffffffffffffffffffffffffffffffffffffffffffffffffffffff038211156123b1576123b06122dd565b5b828201905092915050565b7f4e487b7100000000000000000000000000000000000000000000000000000000600052604160045260246000fd5b60006123f682611a37565b9150600082141561240a576124096122dd565b5b600182039050919050565b7f537472696e67733a20686578206c656e67746820696e73756666696369656e74600082015250565b600061244b602083611cc8565b915061245682612415565b602082019050919050565b6000602082019050818103600083015261247a8161243e565b905091905056fea264697066735822122011653be763867915d3cab261d5274f967f15a13b81d56728d08f565a8d23feba64736f6c63430008090033",
  "linkReferences": {},
  "deployedLinkReferences": {}
}