{
  "_format": "hh-sol-artifact-1",
  "contractName": "GameScores",
  "sourceName": "contracts/GameScores.sol",
  "abi": [
    {
      "inputs": [
        {
          "internalType": "contract IERC20",
          "name": "_token",
          "type": "address"
        },
        {
          "internalType": "address",
          "name": "_manager",
          "type": "address"
        }
      ],
      "stateMutability": "nonpayable",
      "type": "constructor"
    },
    {
      "anonymous": false,
      "inputs": [
        {
          "indexed": true,
          "internalType": "address",
          "name": "previousOwner",
          "type": "address"
        },
        {
          "indexed": true,
          "internalType": "address",
          "name": "newOwner",
          "type": "address"
        }
      ],
      "name": "OwnershipTransferred",
      "type": "event"
    },
    {
      "anonymous": false,
      "inputs": [
        {
          "indexed": true,
          "internalType": "bytes32",
          "name": "role",
          "type": "bytes32"
        },
        {
          "indexed": true,
          "internalType": "bytes32",
          "name": "previousAdminRole",
          "type": "bytes32"
        },
        {
          "indexed": true,
          "internalType": "bytes32",
          "name": "newAdminRole",
          "type": "bytes32"
        }
      ],
      "name": "RoleAdminChanged",
      "type": "event"
    },
    {
      "anonymous": false,
      "inputs": [
        {
          "indexed": true,
          "internalType": "bytes32",
          "name": "role",
          "type": "bytes32"
        },
        {
          "indexed": true,
          "internalType": "address",
          "name": "account",
          "type": "address"
        },
        {
          "indexed": true,
          "internalType": "address",
          "name": "sender",
          "type": "address"
        }
      ],
      "name": "RoleGranted",
      "type": "event"
    },
    {
      "anonymous": false,
      "inputs": [
        {
          "indexed": true,
          "internalType": "bytes32",
          "name": "role",
          "type": "bytes32"
        },
        {
          "indexed": true,
          "internalType": "address",
          "name": "account",
          "type": "address"
        },
        {
          "indexed": true,
          "internalType": "address",
          "name": "sender",
          "type": "address"
        }
      ],
      "name": "RoleRevoked",
      "type": "event"
    },
    {
      "inputs": [],
      "name": "DEFAULT_ADMIN_ROLE",
      "outputs": [
        {
          "internalType": "bytes32",
          "name": "",
          "type": "bytes32"
        }
      ],
      "stateMutability": "view",
      "type": "function"
    },
    {
      "inputs": [],
      "name": "MANAGE_ROLE",
      "outputs": [
        {
          "internalType": "bytes32",
          "name": "",
          "type": "bytes32"
        }
      ],
      "stateMutability": "view",
      "type": "function"
    },
    {
      "inputs": [
        {
          "internalType": "bytes32",
          "name": "role",
          "type": "bytes32"
        }
      ],
      "name": "getRoleAdmin",
      "outputs": [
        {
          "internalType": "bytes32",
          "name": "",
          "type": "bytes32"
        }
      ],
      "stateMutability": "view",
      "type": "function"
    },
    {
      "inputs": [
        {
          "internalType": "bytes32",
          "name": "role",
          "type": "bytes32"
        },
        {
          "internalType": "address",
          "name": "account",
          "type": "address"
        }
      ],
      "name": "grantRole",
      "outputs": [],
      "stateMutability": "nonpayable",
      "type": "function"
    },
    {
      "inputs": [
        {
          "internalType": "bytes32",
          "name": "role",
          "type": "bytes32"
        },
        {
          "internalType": "address",
          "name": "account",
          "type": "address"
        }
      ],
      "name": "hasRole",
      "outputs": [
        {
          "internalType": "bool",
          "name": "",
          "type": "bool"
        }
      ],
      "stateMutability": "view",
      "type": "function"
    },
    {
      "inputs": [],
      "name": "owner",
      "outputs": [
        {
          "internalType": "address",
          "name": "",
          "type": "address"
        }
      ],
      "stateMutability": "view",
      "type": "function"
    },
    {
      "inputs": [],
      "name": "playToEarn",
      "outputs": [],
      "stateMutability": "nonpayable",
      "type": "function"
    },
    {
      "inputs": [
        {
          "internalType": "uint256",
          "name": "",
          "type": "uint256"
        }
      ],
      "name": "players",
      "outputs": [
        {
          "internalType": "address",
          "name": "",
          "type": "address"
        }
      ],
      "stateMutability": "view",
      "type": "function"
    },
    {
      "inputs": [],
      "name": "renounceOwnership",
      "outputs": [],
      "stateMutability": "nonpayable",
      "type": "function"
    },
    {
      "inputs": [
        {
          "internalType": "bytes32",
          "name": "role",
          "type": "bytes32"
        },
        {
          "internalType": "address",
          "name": "account",
          "type": "address"
        }
      ],
      "name": "renounceRole",
      "outputs": [],
      "stateMutability": "nonpayable",
      "type": "function"
    },
    {
      "inputs": [],
      "name": "retrive",
      "outputs": [],
      "stateMutability": "nonpayable",
      "type": "function"
    },
    {
      "inputs": [
        {
          "internalType": "bytes32",
          "name": "role",
          "type": "bytes32"
        },
        {
          "internalType": "address",
          "name": "account",
          "type": "address"
        }
      ],
      "name": "revokeRole",
      "outputs": [],
      "stateMutability": "nonpayable",
      "type": "function"
    },
    {
      "inputs": [
        {
          "internalType": "address",
          "name": "",
          "type": "address"
        }
      ],
      "name": "scores",
      "outputs": [
        {
          "internalType": "uint256",
          "name": "",
          "type": "uint256"
        }
      ],
      "stateMutability": "view",
      "type": "function"
    },
    {
      "inputs": [
        {
          "internalType": "bytes4",
          "name": "interfaceId",
          "type": "bytes4"
        }
      ],
      "name": "supportsInterface",
      "outputs": [
        {
          "internalType": "bool",
          "name": "",
          "type": "bool"
        }
      ],
      "stateMutability": "view",
      "type": "function"
    },
    {
      "inputs": [
        {
          "internalType": "address",
          "name": "newOwner",
          "type": "address"
        }
      ],
      "name": "transferOwnership",
      "outputs": [],
      "stateMutability": "nonpayable",
      "type": "function"
    },
    {
      "inputs": [
        {
          "internalType": "uint256",
          "name": "newScore",
          "type": "uint256"
        }
      ],
      "name": "updateScore",
      "outputs": [],
      "stateMutability": "payable",
      "type": "function"
    }
  ],
  "bytecode": "0x60806040523480156200001157600080fd5b50604051620024ca380380620024ca8339818101604052810190620000379190620003bf565b620000576200004b620000d260201b60201c565b620000da60201b60201c565b81600660006101000a81548173ffffffffffffffffffffffffffffffffffffffff021916908373ffffffffffffffffffffffffffffffffffffffff160217905550620000ca7fa076a07f65bcd51bcb15a0f01a65bc18f2d922acb81bcfd8af4caf5adb557091826200019e60201b60201c565b505062000406565b600033905090565b60008060009054906101000a900473ffffffffffffffffffffffffffffffffffffffff169050816000806101000a81548173ffffffffffffffffffffffffffffffffffffffff021916908373ffffffffffffffffffffffffffffffffffffffff1602179055508173ffffffffffffffffffffffffffffffffffffffff168173ffffffffffffffffffffffffffffffffffffffff167f8be0079c531659141344cd1fd0a4f28419497f9722a3daafe3b4186f6b6457e060405160405180910390a35050565b620001b08282620001b460201b60201c565b5050565b620001c68282620002a560201b60201c565b620002a157600180600084815260200190815260200160002060000160008373ffffffffffffffffffffffffffffffffffffffff1673ffffffffffffffffffffffffffffffffffffffff16815260200190815260200160002060006101000a81548160ff02191690831515021790555062000246620000d260201b60201c565b73ffffffffffffffffffffffffffffffffffffffff168173ffffffffffffffffffffffffffffffffffffffff16837f2f8788117e7eff1d82e926ec794901d17c78024a50270940304540a733656f0d60405160405180910390a45b5050565b60006001600084815260200190815260200160002060000160008373ffffffffffffffffffffffffffffffffffffffff1673ffffffffffffffffffffffffffffffffffffffff16815260200190815260200160002060009054906101000a900460ff16905092915050565b600080fd5b600073ffffffffffffffffffffffffffffffffffffffff82169050919050565b6000620003428262000315565b9050919050565b6000620003568262000335565b9050919050565b620003688162000349565b81146200037457600080fd5b50565b60008151905062000388816200035d565b92915050565b620003998162000335565b8114620003a557600080fd5b50565b600081519050620003b9816200038e565b92915050565b60008060408385031215620003d957620003d862000310565b5b6000620003e98582860162000377565b9250506020620003fc85828601620003a8565b9150509250929050565b6120b480620004166000396000f3fe6080604052600436106100f35760003560e01c80638da5cb5b1161008a578063d547741f11610059578063d547741f14610304578063f2fde38b1461032d578063f71d96cb14610356578063f853e34d14610393576100f3565b80638da5cb5b1461025a57806391d1485414610285578063a217fddf146102c2578063a6b7fc5b146102ed576100f3565b806336568abe116100c657806336568abe146101b257806360a4b76a146101db578063715018a61461020657806376dd110f1461021d576100f3565b806301ffc9a7146100f85780630204bb5f14610135578063248a9ca31461014c5780632f2ff15d14610189575b600080fd5b34801561010457600080fd5b5061011f600480360381019061011a9190611653565b6103af565b60405161012c919061169b565b60405180910390f35b34801561014157600080fd5b5061014a610429565b005b34801561015857600080fd5b50610173600480360381019061016e91906116ec565b61088c565b6040516101809190611728565b60405180910390f35b34801561019557600080fd5b506101b060048036038101906101ab91906117a1565b6108ac565b005b3480156101be57600080fd5b506101d960048036038101906101d491906117a1565b6108cd565b005b3480156101e757600080fd5b506101f0610950565b6040516101fd9190611728565b60405180910390f35b34801561021257600080fd5b5061021b610974565b005b34801561022957600080fd5b50610244600480360381019061023f91906117e1565b610988565b6040516102519190611827565b60405180910390f35b34801561026657600080fd5b5061026f6109a0565b60405161027c9190611851565b60405180910390f35b34801561029157600080fd5b506102ac60048036038101906102a791906117a1565b6109c9565b6040516102b9919061169b565b60405180910390f35b3480156102ce57600080fd5b506102d7610a34565b6040516102e49190611728565b60405180910390f35b3480156102f957600080fd5b50610302610a3b565b005b34801561031057600080fd5b5061032b600480360381019061032691906117a1565b610a99565b005b34801561033957600080fd5b50610354600480360381019061034f91906117e1565b610aba565b005b34801561036257600080fd5b5061037d60048036038101906103789190611898565b610b3e565b60405161038a9190611851565b60405180910390f35b6103ad60048036038101906103a89190611898565b610b74565b005b60007f7965db0b000000000000000000000000000000000000000000000000000000007bffffffffffffffffffffffffffffffffffffffffffffffffffffffff1916827bffffffffffffffffffffffffffffffffffffffffffffffffffffffff19161480610422575061042182610f93565b5b9050919050565b6104537fa076a07f65bcd51bcb15a0f01a65bc18f2d922acb81bcfd8af4caf5adb557091336109c9565b610492576040517f08c379a000000000000000000000000000000000000000000000000000000000815260040161048990611922565b60405180910390fd5b600073ffffffffffffffffffffffffffffffffffffffff1660036000600381106104bf576104be611942565b5b0160009054906101000a900473ffffffffffffffffffffffffffffffffffffffff1673ffffffffffffffffffffffffffffffffffffffff16146105e557600660009054906101000a900473ffffffffffffffffffffffffffffffffffffffff1673ffffffffffffffffffffffffffffffffffffffff1663a9059cbb600360006003811061054f5761054e611942565b5b0160009054906101000a900473ffffffffffffffffffffffffffffffffffffffff166101f46040518363ffffffff1660e01b81526004016105919291906119b6565b602060405180830381600087803b1580156105ab57600080fd5b505af11580156105bf573d6000803e3d6000fd5b505050506040513d601f19601f820116820180604052508101906105e39190611a0b565b505b600073ffffffffffffffffffffffffffffffffffffffff16600360016003811061061257610611611942565b5b0160009054906101000a900473ffffffffffffffffffffffffffffffffffffffff1673ffffffffffffffffffffffffffffffffffffffff161461073857600660009054906101000a900473ffffffffffffffffffffffffffffffffffffffff1673ffffffffffffffffffffffffffffffffffffffff1663a9059cbb60036001600381106106a2576106a1611942565b5b0160009054906101000a900473ffffffffffffffffffffffffffffffffffffffff1661012c6040518363ffffffff1660e01b81526004016106e4929190611a73565b602060405180830381600087803b1580156106fe57600080fd5b505af1158015610712573d6000803e3d6000fd5b505050506040513d601f19601f820116820180604052508101906107369190611a0b565b505b600073ffffffffffffffffffffffffffffffffffffffff16600360026003811061076557610764611942565b5b0160009054906101000a900473ffffffffffffffffffffffffffffffffffffffff1673ffffffffffffffffffffffffffffffffffffffff161461088a57600660009054906101000a900473ffffffffffffffffffffffffffffffffffffffff1673ffffffffffffffffffffffffffffffffffffffff1663a9059cbb60036002600381106107f5576107f4611942565b5b0160009054906101000a900473ffffffffffffffffffffffffffffffffffffffff1660646040518363ffffffff1660e01b8152600401610836929190611ad7565b602060405180830381600087803b15801561085057600080fd5b505af1158015610864573d6000803e3d6000fd5b505050506040513d601f19601f820116820180604052508101906108889190611a0b565b505b565b600060016000838152602001908152602001600020600101549050919050565b6108b58261088c565b6108be81610ffd565b6108c88383611011565b505050565b6108d56110f1565b73ffffffffffffffffffffffffffffffffffffffff168173ffffffffffffffffffffffffffffffffffffffff1614610942576040517f08c379a000000000000000000000000000000000000000000000000000000000815260040161093990611b72565b60405180910390fd5b61094c82826110f9565b5050565b7fa076a07f65bcd51bcb15a0f01a65bc18f2d922acb81bcfd8af4caf5adb55709181565b61097c6111db565b6109866000611259565b565b60026020528060005260406000206000915090505481565b60008060009054906101000a900473ffffffffffffffffffffffffffffffffffffffff16905090565b60006001600084815260200190815260200160002060000160008373ffffffffffffffffffffffffffffffffffffffff1673ffffffffffffffffffffffffffffffffffffffff16815260200190815260200160002060009054906101000a900460ff16905092915050565b6000801b81565b610a436111db565b6000610a4d6109a0565b90508073ffffffffffffffffffffffffffffffffffffffff166108fc479081150290604051600060405180830381858888f19350505050158015610a95573d6000803e3d6000fd5b5050565b610aa28261088c565b610aab81610ffd565b610ab583836110f9565b505050565b610ac26111db565b600073ffffffffffffffffffffffffffffffffffffffff168173ffffffffffffffffffffffffffffffffffffffff161415610b32576040517f08c379a0000000000000000000000000000000000000000000000000000000008152600401610b2990611c04565b60405180910390fd5b610b3b81611259565b50565b60038160038110610b4e57600080fd5b016000915054906101000a900473ffffffffffffffffffffffffffffffffffffffff1681565b662386f26fc10000341015610bbe576040517f08c379a0000000000000000000000000000000000000000000000000000000008152600401610bb590611c96565b60405180910390fd5b80600260003373ffffffffffffffffffffffffffffffffffffffff1673ffffffffffffffffffffffffffffffffffffffff1681526020019081526020016000208190555060006003600060038110610c1957610c18611942565b5b0160009054906101000a900473ffffffffffffffffffffffffffffffffffffffff16905060006003600160038110610c5457610c53611942565b5b0160009054906101000a900473ffffffffffffffffffffffffffffffffffffffff169050600260006003600260038110610c9157610c90611942565b5b0160009054906101000a900473ffffffffffffffffffffffffffffffffffffffff1673ffffffffffffffffffffffffffffffffffffffff1673ffffffffffffffffffffffffffffffffffffffff16815260200190815260200160002054831115610f8e57600260008373ffffffffffffffffffffffffffffffffffffffff1673ffffffffffffffffffffffffffffffffffffffff16815260200190815260200160002054831115610e4057816003600160038110610d5257610d51611942565b5b0160006101000a81548173ffffffffffffffffffffffffffffffffffffffff021916908373ffffffffffffffffffffffffffffffffffffffff160217905550806003600260038110610da757610da6611942565b5b0160006101000a81548173ffffffffffffffffffffffffffffffffffffffff021916908373ffffffffffffffffffffffffffffffffffffffff160217905550336003600060038110610dfc57610dfb611942565b5b0160006101000a81548173ffffffffffffffffffffffffffffffffffffffff021916908373ffffffffffffffffffffffffffffffffffffffff160217905550610f8d565b600260008273ffffffffffffffffffffffffffffffffffffffff1673ffffffffffffffffffffffffffffffffffffffff16815260200190815260200160002054831115610f3657806003600260038110610e9d57610e9c611942565b5b0160006101000a81548173ffffffffffffffffffffffffffffffffffffffff021916908373ffffffffffffffffffffffffffffffffffffffff160217905550336003600160038110610ef257610ef1611942565b5b0160006101000a81548173ffffffffffffffffffffffffffffffffffffffff021916908373ffffffffffffffffffffffffffffffffffffffff160217905550610f8c565b336003600260038110610f4c57610f4b611942565b5b0160006101000a81548173ffffffffffffffffffffffffffffffffffffffff021916908373ffffffffffffffffffffffffffffffffffffffff1602179055505b5b5b505050565b60007f01ffc9a7000000000000000000000000000000000000000000000000000000007bffffffffffffffffffffffffffffffffffffffffffffffffffffffff1916827bffffffffffffffffffffffffffffffffffffffffffffffffffffffff1916149050919050565b61100e816110096110f1565b61131d565b50565b61101b82826109c9565b6110ed57600180600084815260200190815260200160002060000160008373ffffffffffffffffffffffffffffffffffffffff1673ffffffffffffffffffffffffffffffffffffffff16815260200190815260200160002060006101000a81548160ff0219169083151502179055506110926110f1565b73ffffffffffffffffffffffffffffffffffffffff168173ffffffffffffffffffffffffffffffffffffffff16837f2f8788117e7eff1d82e926ec794901d17c78024a50270940304540a733656f0d60405160405180910390a45b5050565b600033905090565b61110382826109c9565b156111d75760006001600084815260200190815260200160002060000160008373ffffffffffffffffffffffffffffffffffffffff1673ffffffffffffffffffffffffffffffffffffffff16815260200190815260200160002060006101000a81548160ff02191690831515021790555061117c6110f1565b73ffffffffffffffffffffffffffffffffffffffff168173ffffffffffffffffffffffffffffffffffffffff16837ff6391f5c32d9c69d2a47ea670b442974b53935d1edc7fd64eb21e047a839171b60405160405180910390a45b5050565b6111e36110f1565b73ffffffffffffffffffffffffffffffffffffffff166112016109a0565b73ffffffffffffffffffffffffffffffffffffffff1614611257576040517f08c379a000000000000000000000000000000000000000000000000000000000815260040161124e90611d02565b60405180910390fd5b565b60008060009054906101000a900473ffffffffffffffffffffffffffffffffffffffff169050816000806101000a81548173ffffffffffffffffffffffffffffffffffffffff021916908373ffffffffffffffffffffffffffffffffffffffff1602179055508173ffffffffffffffffffffffffffffffffffffffff168173ffffffffffffffffffffffffffffffffffffffff167f8be0079c531659141344cd1fd0a4f28419497f9722a3daafe3b4186f6b6457e060405160405180910390a35050565b61132782826109c9565b6113b65761134c8173ffffffffffffffffffffffffffffffffffffffff1660146113ba565b61135a8360001c60206113ba565b60405160200161136b929190611e34565b6040516020818303038152906040526040517f08c379a00000000000000000000000000000000000000000000000000000000081526004016113ad9190611eb8565b60405180910390fd5b5050565b6060600060028360026113cd9190611f09565b6113d79190611f63565b67ffffffffffffffff8111156113f0576113ef611fb9565b5b6040519080825280601f01601f1916602001820160405280156114225781602001600182028036833780820191505090505b5090507f30000000000000000000000000000000000000000000000000000000000000008160008151811061145a57611459611942565b5b60200101907effffffffffffffffffffffffffffffffffffffffffffffffffffffffffffff1916908160001a9053507f7800000000000000000000000000000000000000000000000000000000000000816001815181106114be576114bd611942565b5b60200101907effffffffffffffffffffffffffffffffffffffffffffffffffffffffffffff1916908160001a905350600060018460026114fe9190611f09565b6115089190611f63565b90505b60018111156115a8577f3031323334353637383961626364656600000000000000000000000000000000600f86166010811061154a57611549611942565b5b1a60f81b82828151811061156157611560611942565b5b60200101907effffffffffffffffffffffffffffffffffffffffffffffffffffffffffffff1916908160001a905350600485901c9450806115a190611fe8565b905061150b565b50600084146115ec576040517f08c379a00000000000000000000000000000000000000000000000000000000081526004016115e39061205e565b60405180910390fd5b8091505092915050565b600080fd5b60007fffffffff0000000000000000000000000000000000000000000000000000000082169050919050565b611630816115fb565b811461163b57600080fd5b50565b60008135905061164d81611627565b92915050565b600060208284031215611669576116686115f6565b5b60006116778482850161163e565b91505092915050565b60008115159050919050565b61169581611680565b82525050565b60006020820190506116b0600083018461168c565b92915050565b6000819050919050565b6116c9816116b6565b81146116d457600080fd5b50565b6000813590506116e6816116c0565b92915050565b600060208284031215611702576117016115f6565b5b6000611710848285016116d7565b91505092915050565b611722816116b6565b82525050565b600060208201905061173d6000830184611719565b92915050565b600073ffffffffffffffffffffffffffffffffffffffff82169050919050565b600061176e82611743565b9050919050565b61177e81611763565b811461178957600080fd5b50565b60008135905061179b81611775565b92915050565b600080604083850312156117b8576117b76115f6565b5b60006117c6858286016116d7565b92505060206117d78582860161178c565b9150509250929050565b6000602082840312156117f7576117f66115f6565b5b60006118058482850161178c565b91505092915050565b6000819050919050565b6118218161180e565b82525050565b600060208201905061183c6000830184611818565b92915050565b61184b81611763565b82525050565b60006020820190506118666000830184611842565b92915050565b6118758161180e565b811461188057600080fd5b50565b6000813590506118928161186c565b92915050565b6000602082840312156118ae576118ad6115f6565b5b60006118bc84828501611883565b91505092915050565b600082825260208201905092915050565b7f43616c6c6572206973206e6f742061206d616e61676572000000000000000000600082015250565b600061190c6017836118c5565b9150611917826118d6565b602082019050919050565b6000602082019050818103600083015261193b816118ff565b9050919050565b7f4e487b7100000000000000000000000000000000000000000000000000000000600052603260045260246000fd5b6000819050919050565b6000819050919050565b60006119a061199b61199684611971565b61197b565b61180e565b9050919050565b6119b081611985565b82525050565b60006040820190506119cb6000830185611842565b6119d860208301846119a7565b9392505050565b6119e881611680565b81146119f357600080fd5b50565b600081519050611a05816119df565b92915050565b600060208284031215611a2157611a206115f6565b5b6000611a2f848285016119f6565b91505092915050565b6000819050919050565b6000611a5d611a58611a5384611a38565b61197b565b61180e565b9050919050565b611a6d81611a42565b82525050565b6000604082019050611a886000830185611842565b611a956020830184611a64565b9392505050565b6000819050919050565b6000611ac1611abc611ab784611a9c565b61197b565b61180e565b9050919050565b611ad181611aa6565b82525050565b6000604082019050611aec6000830185611842565b611af96020830184611ac8565b9392505050565b7f416363657373436f6e74726f6c3a2063616e206f6e6c792072656e6f756e636560008201527f20726f6c657320666f722073656c660000000000000000000000000000000000602082015250565b6000611b5c602f836118c5565b9150611b6782611b00565b604082019050919050565b60006020820190508181036000830152611b8b81611b4f565b9050919050565b7f4f776e61626c653a206e6577206f776e657220697320746865207a65726f206160008201527f6464726573730000000000000000000000000000000000000000000000000000602082015250565b6000611bee6026836118c5565b9150611bf982611b92565b604082019050919050565b60006020820190508181036000830152611c1d81611be1565b9050919050565b7f56616c75652073686f756c642062652067726561746572206f7220657175616c60008201527f20746f20302e3031000000000000000000000000000000000000000000000000602082015250565b6000611c806028836118c5565b9150611c8b82611c24565b604082019050919050565b60006020820190508181036000830152611caf81611c73565b9050919050565b7f4f776e61626c653a2063616c6c6572206973206e6f7420746865206f776e6572600082015250565b6000611cec6020836118c5565b9150611cf782611cb6565b602082019050919050565b60006020820190508181036000830152611d1b81611cdf565b9050919050565b600081905092915050565b7f416363657373436f6e74726f6c3a206163636f756e7420000000000000000000600082015250565b6000611d63601783611d22565b9150611d6e82611d2d565b601782019050919050565b600081519050919050565b60005b83811015611da2578082015181840152602081019050611d87565b83811115611db1576000848401525b50505050565b6000611dc282611d79565b611dcc8185611d22565b9350611ddc818560208601611d84565b80840191505092915050565b7f206973206d697373696e6720726f6c6520000000000000000000000000000000600082015250565b6000611e1e601183611d22565b9150611e2982611de8565b601182019050919050565b6000611e3f82611d56565b9150611e4b8285611db7565b9150611e5682611e11565b9150611e628284611db7565b91508190509392505050565b6000601f19601f8301169050919050565b6000611e8a82611d79565b611e9481856118c5565b9350611ea4818560208601611d84565b611ead81611e6e565b840191505092915050565b60006020820190508181036000830152611ed28184611e7f565b905092915050565b7f4e487b7100000000000000000000000000000000000000000000000000000000600052601160045260246000fd5b6000611f148261180e565b9150611f1f8361180e565b9250817fffffffffffffffffffffffffffffffffffffffffffffffffffffffffffffffff0483118215151615611f5857611f57611eda565b5b828202905092915050565b6000611f6e8261180e565b9150611f798361180e565b9250827fffffffffffffffffffffffffffffffffffffffffffffffffffffffffffffffff03821115611fae57611fad611eda565b5b828201905092915050565b7f4e487b7100000000000000000000000000000000000000000000000000000000600052604160045260246000fd5b6000611ff38261180e565b9150600082141561200757612006611eda565b5b600182039050919050565b7f537472696e67733a20686578206c656e67746820696e73756666696369656e74600082015250565b60006120486020836118c5565b915061205382612012565b602082019050919050565b600060208201905081810360008301526120778161203b565b905091905056fea26469706673582212200b051dfc1301e6085a127e4005fda74067ac6c35af04cbbc6a628a45d0d1c55164736f6c63430008090033",
  "linkReferences": {},
  "deployedLinkReferences": {}
}